:020000020000FC
:060000000C947600189537
:02000800189549
:02000C00189545
:02001000189541
:0200140018953D
:02001800189539
:02001C00189535
:02002000189531
:0200240018952D
:02002800189529
:02002C00189525
:02003000189521
:0200340018951D
:0200380012C0F4
:02003C00189515
:02004000189511
:0200440018950D
:02004800189509
:02004C00189505
:02005000189501
:020054001895FD
:020058001895F9
:10005C001895FE3711F4E43921F035913093B40042
:10006C001895499B3DC00F9300E004BD0F910F9371
:10007C0000E005BD0F910F9300E000936E000F910F
:10008C000F9300E007BD0F910F9300E008BD0F9197
:10009C000F9300E00093B0000F910F9300E00093DA
:1000AC00B1000F910F9300E0009370000F910F932C
:1000BC0000E00093B3000F910F9300E00093B400A5
:1000CC000F910F9300E00BB90F91499A499A0000D8
:1000DC00499A499A0F9305E003BF0F918895C1CFB8
:1000EC00E0E0F1E000270193F830E9F7EF3FD9F7B2
:1000FC00EEE1FF27EA95F083E9F70FEF0DBF08E07B
:10010C000EBF0F9302E004BD0F910F9302E005BDEB
:10011C000F910F9307E000936E000F910F9305EA78
:10012C0007BD0F910F9300E008BD0F910F9303EAE9
:10013C000093B0000F910F9301E00093B1000F9169
:10014C000F9300E0009370000F910F930FE7009353
:10015C00B3000F910F930FE30093B4000F910F9323
:10016C000CE00AB90F910F9302E00BB90F910F93AA
:10017C000FE7009366000F91E4E9F1E05A9A789446
:10018C00000000000000FBCF0DDF8320208080806A
:10019C008080808080808080808080808080808053
:1001AC008080808080808080808080808080808043
:1001BC008080808080808080808080808080808033
:1001CC008080808080808080808080808080808023
:1001DC008080808080808080808080808080808013
:1001EC008080808080808080808080808080808003
:1001FC0080808080808080808080808080808080F3
:10020C0080808080808080808080808080808080E2
:10021C0080808080808080808080808080808080D2
:10022C0080808080808080808080808080818181BF
:10023C00818181807F807F8080808080807F7F7EB5
:10024C007F7E7D7D7C7D7C7E7E7F808082838484AE
:10025C00848382838485868684817E7C7C7D7D7E7E
:10026C007C787676787B7F8080818080828386879D
:10027C0088878888888A84847F7E7D7C7E7B7D7B52
:10028C007E7E7E7F7D7F7B7B7778787B7E7F807E9A
:10029C007F7F828184828282848685888685828221
:1002AC008080818382818281817F7D7B7B7D7F7E4B
:1002BC007C7C79787A7F828586868585868587861B
:1002CC008686848180817F7F7E807E79797777773F
:1002DC007B7D8083827F7D7D7F82838686858583FF
:1002EC0082838488878A8683827C7B7778767B7806
:1002FC007879797C7B8081828182818083838487F9
:10030C008B888787837F7F83848586817B767674D1
:10031C007478797D7D7979797C7F8989898A8683DE
:10032C007B81818483817C797772787D82838381E0
:10033C007D7E8185898987807B7675797F828283B2
:10034C0080807E8183868A85847C7B7D868A888B6F
:10035C0080797374757D8684817A787074798489D8
:10036C0089857F80848E8E90897C72727379807E71
:10037C007A7475717680898F8D8C86858D9696961C
:10038C008E817876777B807E78767573787F85849E
:10039C00837F7B8190929090877473797A84898221
:1003AC0071706C6C7481817B776F707A87898783AD
:1003BC007D7B82899295918B8B8B939C988F7E758C
:1003CC0068707E817C766C5A5D6C768085807D80D1
:1003DC0082909C9D948C8789959B8E7E6B575668DA
:1003EC0076797A746762748494A19E8F8A8B9DA2AD
:1003FC00998F73625C717B7C73675E61788A958E72
:10040C00816D6E7B99A2988367585E79878E83790C
:10041C00727F8E9B9685726E7D8FA08E78584D5C08
:10042C007B929388706F80A0B1B7A181768193A5E0
:10043C009B795E56637A8E846E636A85A6B3A387B6
:10044C0074799CBACCB389666179939C7E66566B41
:10045C008CA5A1846F677B959F99745A587088906E
:10046C007E524E5F849492705059678B919582693D
:10047C007075827577645E718089766A596A848F2B
:10048C008E807F7E838C877F7C827E8287807D7E40
:10049C00827B7B70737F91A18C81717D8BA0987D09
:1004AC008A96AFAA9C73687D8E87685E56595E6586
:1004BC00696A848F919D99A8AFB4ACB1B3B4B5BB44
:1004CC00C0957A656A6773755361697778727595AB
:1004DC00B7A89E90AAA3998A757779815E60616DA1
:1004EC006F655952666871667279564B5B7384936B
:1004FC00886770777F6D6565727F64686F89665DEC
:10050C005A525E696D57848C988F8A849FAE9D97E2
:10051C009CA5666B6F807669585A8B8481758A941A
:10052C00ABA286ACC8E3AB819EB9D8AD9587BFD5DD
:10053C00B1948DB8A3986D9CBECA7B5C7D7B7943CE
:10054C0049468D68484A686E4F55568F8D6D2752B7
:10055C008A8C785D6E899E61648DA1826F6F87C174
:10056C00AF9753849B785A506C4A634162798C6C78
:10057C00648892AFA8895FB0895E49757D91844784
:10058C00787E6D4373697D908C5279A87D7A88AFA3
:10059C00A4BC869CA5B396979F879A928D52928FF6
:1005AC00725F706C60594774867B507A707B768171
:1005BC005F549A6C6C7AA8A0AB9372938582749FEB
:1005CC009CB3C8BB8196BE808FABC8AEB892A2A8B4
:1005DC00988A9CA87F8A83724EAC7F6A5E736D7A10
:1005EC007252876D733E76668C8681404A5E2B44D0
:1005FC004A744B63356878888195796588A98348F6
:10060C0099616D5D81647B6A679D7561598F7A957F
:10061C00999B69B6BD85707DA18DA571A08B997CC8
:10062C008F9094B29F977BC47D847F9FA89D79798E
:10063C00A38A7E716A49769A982E7274625270748B
:10064C00659378AC7A9AB5E2C2947C87A79DCB95DA
:10065C007D8CAEA995767D866864708173887B8C61
:10066C004D8C8734414E6C30534270504F575974F7
:10067C0085A6A4A18EE7A76564A5A3806358666BC5
:10068C008A665E56828C9946648E5B7171814A7261
:10069C0077867382968D7C65989BA07FCA9C769793
:1006AC00A7A29F9A7D846B5F416A647B88A1648258
:1006BC00D68EA0B9BD7BB9B5B5AFA9CC968A7FA2B1
:1006CC00808C3A729D6B6C6A8C46608D95617874E7
:1006DC006C7568634E2B20615C3F537A795680822F
:1006EC008D829D8FA69E9BA1A07C59BD7A6E8A9708
:1006FC008F9C94948378989F885E8B656D3F7578FA
:10070C00577C626964854D7771898687A689B4BCEC
:10071C00CE638559538C96795C86617E71ACAA8EBA
:10072C00798B8AB08068B57C66829663A29C8E8138
:10073C0080787592666A6F8E5279884767736956AE
:10074C0091A47A76A799899BA298958769B29468A7
:10075C0098A29EA6ABA69D88B3AC958D978FC580AD
:10076C00429E5B2D5F86253F7985434C7C6C917155
:10077C00706C8A528C8C2C4176735D5F558E5163F4
:10078C00858655688F8FAC83E2B28B73A398698F83
:10079C008B994E76656D798C79936B4FBA764162F5
:1007AC00AC9E996A7D8E65808B7F71A1ABBF7F8774
:1007BC00C0AB98A2C98B8AA5BE958F9B8F93749062
:1007CC00A9A175CAA1769998959F8F659B715F4475
:1007DC003434424944141E76544E546547517B714F
:1007EC00787E93806E5669878738497A6689B3BF5D
:1007FC0085939CCDCFBECDEEB59BB2CCA048857475
:10080C007A7D99808892B3A97C898C8FA496627228
:10081C00272E49292F5A5D446C857485997B6F76F8
:10082C008B9AAAA951768D3F3388813659797A6E85
:10083C0094797B5F687EBF96409B805A47819695E2
:10084C009FB8AB84A3ABA9B8B89ED1C885896D629B
:10085C00947F5F848F91968E958C7177966F74626E
:10086C006F591B617B563E76A68FA2967EC7C9A98F
:10087C009FC2A676A2813358A6955F5A9891729220
:10088C00796A84A98FA1835BB06851827E63857578
:10089C005274816D3C53817C51928F6B7E686F7B5F
:1008AC00684B6564536C837249497E8E5F7E556ECE
:1008BC00C8A580AFBA6FB4B2A9918AB2BA7A55A260
:1008CC00C38E457D85667BB1A464A2B38DA86F826F
:1008DC00817F5864A18C5D88BC6596B4C27F9DAF46
:1008EC009A9B9CC07684745F9476426B77586B9B12
:1008FC009C8DB2AA9A6972927B466166425B413EBC
:10090C000F2C4F76335E78525563875879677D6C20
:10091C006A4563623C49546B4E79AA9B74B8C3A672
:10092C0095ABC5ABA27AB9B47D8CB1A789C9D0A758
:10093C0089DDD0C5A094BCD6B57EE1967289A7732B
:10094C006F7D9D784690958E657078925080C37AB5
:10095C003D69A9662968B25849807C795C725F460A
:10096C00245D955049284C7475538E947986689102
:10097C00A38E8CA373979399B0622B6DA7705F7342
:10098C008A623E5EB0766D826D9D784B82993D3E5B
:10099C00777B5C7AA093719C958BBEAE78A0C48358
:1009AC0076A4AA837E7B9E90777A9A867075B5A280
:1009BC00A7BBA8CA868EA6B67682AE926C6D829ABA
:1009CC008757794E698556749A5655A267365F7D5E
:1009DC006E2C569A6F4E5C607583757F988967AFE5
:1009EC00AAA78DA6B8A3A0A6BE999D639085928F49
:1009FC0087918D8874B48F6D80847A765773445345
:100A0C006F4F5B7C524CA3685683A9887A76A6B646
:100A1C0094A87B985D4E86A56745AD886877A7AD91
:100A2C00744B9E8A7B75588B60464676573E5B723C
:100A3C0046486F556A656364744C768B468591693C
:100A4C005793897C6A8EA77390BAAF91A77EAE83B9
:100A5C0065A5B4678ADEAD819DC89379A6DCA2AB8F
:100A6C00B1A2B9978CC7BD76AED99C7299A7737693
:100A7C008E9A89AF6D80BA788EA2A37EB4A4A4722C
:100A8C008B9A75788598939B538A6D6676803E60B9
:100A9C00926F5C39684336275432444F4468253C86
:100AAC006D68194F7B642E2B814A143482342B547D
:100ABC004D6D36529C7D3E9C9991896FA79C7A67AF
:100ACC00B5A3987BA6CB78B6C89EA8DAB3ABB9AE63
:100ADC00C597A4C8A691A9A49C948C92B3AE8BBDC7
:100AEC00D3AC83BCB87168B09745886565735E59A3
:100AFC008AA15DB2A99880829D81557FB146767896
:100B0C00874E3A7E836361A48EA480938768687253
:100B1C008663454A80454B5368706482758F899D06
:100B2C00826F6480605B6858704747707E5270A912
:100B3C00B0708CB8B67E7CB28B816195B753499AF4
:100B4C009961889FC29462B4A27D6CA193874D95E4
:100B5C00B53E6A958A559E9D9F9E808E997465912F
:100B6C0071714B7A914A6DA67B6EA996AA948EA848
:100B7C008F7D8AAE997A5CAA9E5C79A28274A593C9
:100B8C00986F9CAA7669869FA26D5BA469666F7844
:100B9C005E7270716D5F8B885E48897C745F7E714C
:100BAC003D6072464577706A676F847E65507E9BA8
:100BBC00725383A05B5E928D6D83828A8F6F889750
:100BCC00968A81B9B36984CC7F5F8B9F7B65989C37
:100BDC008B7A9591979DAFC0AC78A9C7947381CA55
:100BEC007D49889A6F6682A2868DB3C29F88ABA31B
:100BFC00946E768482515A7963405282496896A2E7
:100C0C00745F83916C36686F5630525F4845417CF7
:100C1C006E6B84A99B5A759781547580656E7B5554
:100C2C00656D726A68A99CB59989C7AA63A7AE95C8
:100C3C008B91C2A88176ADB2849BC9DAA285DABA4F
:100C4C006D87AFA36E6BA37677646889676098B184
:100C5C007B61A1B04F82987E5A6C886E5D725F6723
:100C6C00636C736E9A607483668089697C6E615D57
:100C7C00706D3E5E59715E6F82727B679B76837F6F
:100C8C009570777E6B7C3A867A655C8E974268832A
:100C9C006D6B727C847564A87B807893AA8183AA1F
:100CAC00C04F90AE9974B1B0929590A7917977940A
:100CBC0081817FA49565848D867F779F73789C86D0
:100CCC00827F61828367819783488082797B6FA062
:100CDC00815894897A9C6D97BA8590BBB3659FA80F
:100CEC00819D7EA78D79909A80AA956CA297628837
:100CFC009F38939766988B9A8B72827F708A8868DC
:100D0C00928E688A7A3D7F7D527970727355525DEE
:100D1C00556B67696769777C4A436F53536A736194
:100D2C0081646E643E8E864C749D7B98647BA36359
:100D3C0072B39E69A69FA1757CB7AA6B8EC797AE3E
:100D4C007AABB07B94AE9487B0849F9079A3A6893C
:100D5C0084B1AB937DA0A16A95A27679A17D7B79B4
:100D6C006C83796084738291498191575B8B4C5F62
:100D7C0070615E5F6C66666390518B79418B783ED7
:100D8C006B7F47755C72694E606C7955788D9D648C
:100D9C007DA88D789EA26FAD7C827A7F82719B9F9D
:100DAC008EA2D078B4BC998FA7B16C91A9865B7DCB
:100DBC008C7B8086B5AE9294ADB1788999995B9114
:100DCC00A17D6C5F82755D76A7917F72A588697D28
:100DDC00A364557E8066564D5C6947716A9C896E2A
:100DEC009BA7778DB06369947056666C534B628D7C
:100DFC005B809E73A490979EAC69909D7B80657779
:100E0C00856250997E8E7F7CA1A27BA9AA619B8D65
:100E1C0078657D6B53755D5B7284706788A07A8092
:100E2C00AF5B858E4B5B7E5F3672736A72A77E8575
:100E3C009F9B9C92A17481A6794D9691578094802A
:100E4C00A3956FBFA76BB6B97A86A9988A78959344
:100E5C006B839A8091A378ADBC75B5C9788F9B9341
:100E6C007D5E72914F4A8E7573786A9E8B69948FF2
:100E7C005378704F706550656C5F7C6E9D5977A987
:100E8C006668A188438688794B847B6D6A6A89661B
:100E9C00A06065BA994E9EBB5574859D695A8D8B21
:100EAC00685F9B67A97F4DD394619BC05369848E07
:100EBC006B4493795E648873895872C06D71AC8C85
:100ECC007A767084826B75858C8E6D9EAB6B7DB7DC
:100EDC008C90A3778B8C6879726F8D666E927E8006
:100EEC008A558A9F477CA76859957D69796F8B7065
:100EFC00857F66BF8D48A7BC5A7CAC8179888B7482
:100F0C006188904F859A64B19854BDA76290A67978
:100F1C0071849A8B3FA5B66082B0869EAF65AF9FF9
:100F2C00849084868C787BA05D7DA7675C9E8E798F
:100F3C00858093747E937976857D87876077A75EAD
:100F4C005791888A5A6F8E696F756B5F6E5F6A8C6A
:100F5C00656486806A828FA86F7EA3727E7E8371A1
:100F6C0062728F78728793737A85B07860996A749D
:100F7C0074845E6F6769806481827C768A77A087CF
:100F8C0050A96D6892826D727E6379667B837880DE
:100F9C00A687A4AA57C0A06DA39B7C818468858278
:100FAC00837F8C82AE94A7AE67B9A19274A0837F25
:100FBC00726E755C7F687C789688A7887F958D8625
:100FCC007E82788182835974976169848C6D8B7F62
:100FDC006A927F928584887F6891585C95605F8166
:100FEC007281996D8F7C6E8A82698C6F896F487B58
:100FFC006F58527C5C8D6B61A06C6C8E9A7F837782
:10100C00996454926875858A80B4977CB4938A9459
:10101C009A9E826DA2774CA57279A19086BAA37024
:10102C00C0949381929B9A62AD9B57A278738786EA
:10103C004FA5736E8F7573747E798D66765364606D
:10104C00515F6D744FA0767B99826A70925B7A6A5D
:10105C006A3C687A608990908FAC6EACB0756A9F70
:10106C0094628D968E69799E8869AB859BAD6BA4D5
:10107C00B18F7BC6AF90A0AAB17796939082A590C2
:10108C0092AF6E9C8B6B609296687A8069455B5FC1
:10109C004B575F7AA07F6AA080766C717D65787CF7
:1010AC006B67856064897F85AB69829D557D7C8685
:1010BC007A8C8F7E7F626F49423D4C5C5F3F5999C1
:1010CC004136807C3D818D60696B6B4F496D7D79BC
:1010DC00A37D9EDD847BE8C273C1C98E73A6B074F8
:1010EC007EB79C91BA8EB3C48B74C6B7778FAD772D
:1010FC006C7F7D65509F676E727D8473706D95A259
:10110C008197C27297AAAA826DC6AC7F879EA2698C
:10111C00638482887B9289495A6A53525C657082D7
:10112C0051569B662C65606266646D5E7F7D808027
:10113C00A59489B7948EC5AA7296A6909CA3797033
:10114C00827B656997776BC99660C89566888F8531
:10115C008A8A5B74786243547C5E60AC9695B576F3
:10116C0094A77193BA755C6D84743B528E74518ADA
:10117C00908D8C6283A7476CB5443F6F5A35353FD1
:10118C00675060965A91B84A98C85887BB5B4E9284
:10119C006B6157647D6B8B9581AA9583CAB88EBDA4
:1011AC00CC7C77A27952648C827DAFABA1B3AAB10F
:1011BC00D7AE9ADCD3878BBE954663AD8063AEA366
:1011CC009DA993ABCC9279AF95644C7561292B6535
:1011DC004F40604A7862558696716B7970743E59AF
:1011EC0051323F4C5357614B987B70A7AD7AA2920A
:1011FC0071B5607F72635B8470898052B15D6F8E54
:10120C00956EA99188A0568B5C57676A67985A604F
:10121C00AC5C7BB8959DCDB5B1B5A0A88C85B795C8
:10122C00A0B8998EB98584C7918DAA929E8D5D893F
:10123C00704883765094515F9E56639A6E5E9866A2
:10124C00897E637E805E828564AA598DA16681A3A6
:10125C007C7FA1687251624A5A6F715B50914364F2
:10126C009659587E8B72797B8466989383C599873F
:10127C00A2C36F9DC78E9C9DB4B5AEADB186BB9D10
:10128C0062B99F608B9E4D8D9C8693868185836A07
:10129C00704F935D4680633D5D671B474F59505CB3
:1012AC005E5E5A58563F824A396C765C828C478E09
:1012BC00796289745F7B7D878980B7A7699EC774C3
:1012CC0092A168959380AB9095A3ADAEAE8CADBF5B
:1012DC005C94AE7270A7767E8F827E6F85859AA5A0
:1012EC00AB8AABCAA3A5D0C0BECFB0B9B69B938C0A
:1012FC0093806C98A67682C58763A58F7F6B5C6D97
:10130C004E455444424946596E585F827146556D5C
:10131C0075552F7F563E47616E4C587E935A72829C
:10132C00825B616E9B703C835C54576C6456537A41
:10133C0085738A909E93A493D09D7C956C68727CE7
:10134C0071A288ACB5A2B3B8A8ABB9A0CDB16DA849
:10135C008860908581948289A17E928C92ACA299AE
:10136C00B99D7492705A6A645B6C7E8282878F8E90
:10137C007DA4969EB17D7E705B505E5B4D717F6DE2
:10138C006A827F6074977D749C585E592C573654D2
:10139C0059666B6E6C7D835F839EA08ABC86867D4E
:1013AC0062947E668697939193BBA49BA4CABEABB2
:1013BC00BCD1B59898A4916C7F8B8B658A956E6E19
:1013CC007AA2A4818FB27251765F4C3E34575B3A4D
:1013DC0067793D577B7393846799874E7A80586100
:1013EC00717C875E7BA07F839B9E9F8F5CA48B56BA
:1013FC006A845C4B7D758D78947D7F9D9C80A6A1C5
:10140C006AA396817A966976927D7F96A578859D5A
:10141C00AA74AEB56EA19C7577B16A6E877371694B
:10142C008B61657067517F734B8F896674A67A6E7A
:10143C009596A788A89C7F86837681865F75796749
:10144C005E8F75577E7D7A6474866F607193665E6D
:10145C008785818F909CAE88939E9CA3949DBE9A09
:10146C008ACC8E76A08E91B08584C18687929DAEF3
:10147C007C7BAE7E4D887E6B6E6377946C5AA07FBE
:10148C006C75847D49586E58344D3D64593F6B845E
:10149C004F538F76605887795F448478644B5E92A3
:1014AC004756768F59727A8B684A8D745F598B7F49
:1014BC008E6279B65B65A6A37DB0A5B6BF9CC6CB84
:1014CC00B2A1C5C2BC7699BA6676C09C8BCA99A9E2
:1014DC00CDBFA3B8AD9D8FAD834D797B645488701F
:1014EC006F91816B958A70667C866D916B59705E7D
:1014FC0060717A79648B926985978E6B638B836F3D
:10150C003E6A67445466866669909E5A86947A77DA
:10151C005A859A6C3A886140726A817C7D929E767B
:10152C0088A67F986D89B779709B854A8A80647B81
:10153C0093887F9E89779C905F73B75F679D626984
:10154C00718057747D9A6E9696667B95784D9F57F1
:10155C00868D667C95827088A0AB8D9BAB8B6E8BD9
:10156C0082846F86B09871859A625782787B988155
:10157C00967D577B969F7999CEA782B7D29580C3DB
:10158C00BC80B1AC98846A668083316EA25E5E9634
:10159C0096675E848C5486886A71544A5769427186
:1015AC009481768395675A676D6678776B8A7258E3
:1015BC00898F6298A1A1A997A28E7B728380A07259
:1015CC005F877A286C712E7A6C7B8F897693706327
:1015DC00736A7C6A4E857B31647C548F8184CF8D99
:1015EC0096AD8A759E9F9C9883A5A073938095B2A7
:1015FC00A3AFD9B78FBF9AA382B49A9585B08A7AD4
:10160C008E4AA07A7684B9707D89537C5770705855
:10161C005F874D6C76296F8261689F646F763B653E
:10162C00734E4A63627D4589703F757F6B58886342
:10163C0079626A5D7B73627A77905F99767A849827
:10164C00A3A2BC99B6ABAE87AAA783988E7E9479D9
:10165C006CB38398B5B1A9ABB1A0AC9BA79176A69E
:10166C00A48EBCA678CA9B74A9AF838CA7988F9DB7
:10167C00B47A838B9965B1666CAC5A58718B4B6597
:10168C00629143647F383E57463B682E3C63373546
:10169C006B5F3A4C625B504F5A4A4B5268607357BF
:1016AC007C976A609C9460879CA27FA288A17A7DBB
:1016BC00959E775EA972865D95946074BAAE7AB584
:1016CC007B9C905E85C36C6EBB899B849B9B82725A
:1016DC00ABB489A3859893637FB56765907B7B805A
:1016EC00869B877CABB4A18C8C859A688A897F8613
:1016FC007D8A8E8F6B9D807D788F9986698B8755BF
:10170C0089767B78798C968F84909187938896AB29
:10171C007E99A97CA49786A77291A29A80849180C5
:10172C0093838A8D7B83A16E88686B754A718866FA
:10173C006D834873666E6873585B72535B44674184
:10174C00245E6B3F566C38415C504E507364508035
:10175C006F2A986730898E6C79B4698BA98E9192B7
:10176C00A7B77EAA946BA3814F85B76196C281708F
:10177C00D0A56DAAAEA4729E95747B988588AD8712
:10178C00B6C08F81DEA881B8CCB19BA47BAE727A37
:10179C0098A07D70AEAB8561BDA86589A791845575
:1017AC004B765D26598A4B52758B736C758B6A8E92
:1017BC0078878E575A588448637286576F878B93F5
:1017CC00798E82B88F8696666B55525C577D6D58B4
:1017DC00618E65877C868F9BB0A4884FAA543B5F33
:1017EC007F6D7E70559285979C989FC39EA67A625A
:1017FC00885C365588648786756D908E8CA28FC4F4
:10180C00BEAD53A197654D659C63818F8A649E6FB5
:10181C0096A9969CD28B45AF6C6554536A886C8A9A
:10182C0082659D8085ABB48EC88562B061697C6B26
:10183C005C8571808856858C7593B7A3B26697A624
:10184C005C6A916E60836E97745172A95C8EB7B9A5
:10185C00936AC0925F61AC5A4D717476725B59A0F9
:10186C005C7BC19C589CA67F61779D6E656C7C6689
:10187C008A5166765C6BAD97379DA27C4E698C75F0
:10188C0050697C51856157717067A38A4BB7A46D01
:10189C007D8F877B7B8E94637D9378738E978E8FF1
:1018AC00769FAC87708D937A518F9F607E808C6F02
:1018BC007F81A3727E8A9F8C7E8A819355988167E3
:1018CC005E8D6D806F6376959C59A1958E6C927E22
:1018DC005C80805F78896FA1A06E73BEA9609EA2A8
:1018EC00A68D89987099847E7194799BB76F71B528
:1018FC00B06B9B9E9EA093887E7E90785B83888C39
:10190C00A7738EAEA39D86ADA5B991918671827594
:10191C006D69A06C7E78A78974AE738588976C6BA3
:10192C00625B5A584254976E354B907050686C5E9F
:10193C008978725445523F58463C709423518673B3
:10194C00807E7D7193788F6E5769535372646F9953
:10195C006868808C79828D8C8B98888A8B6C72638A
:10196C007A7A9497809089909E91ABA4B0C6929508
:10197C00937E887E71A2A48A8C9591908F8CAB8378
:10198C0092C278718773777A4592AF727B878D6537
:10199C008D779B8098A4637C6F6D758B3A87B38031
:1019AC0074877775AF7487A4B6AE85958167768D8D
:1019BC005D83B8938C867E7DB6927596C4A5848E15
:1019CC006B7C718F5180947C956E6B69997781815A
:1019DC00A29281864E616768497A82637B675F72E7
:1019EC007B6570768C87677D5E5164754A618E72FB
:1019FC00736A5E807362777F7F848254816E6F78A6
:101A0C007A6F8195767B7AA0837C6DA2A39A94736E
:101A1C00838797828996ABA6A38C889AA9826D9DA1
:101A2C0096A2A3826991977C7D8DA490987C7285F7
:101A3C009C6B5F9B7E8FA598577A8387736D7D799E
:101A4C00A4776866875B70717686807F637D7994F6
:101A5C006B717F95A4A684708375986467838A9252
:101A6C00927B759E7D7586B19999785A7C77875350
:101A7C006887698298764473716E7C728B85865DFB
:101A8C00728397695074626F7A6C5A7B625D9E891F
:101A9C008A997E75796262A97F6F557FAB73738368
:101AAC006A5B929FA9987B7393776692B18C597DF0
:101ABC00B08A76A9716E7CA5B1927A6CA182798A72
:101ACC00A5896081A980639B76717383B89F897F98
:101ADC00888A6F7BA4A551568F7B6D8380878F621C
:101AEC00A3A794817C78606B7EAB6E6A648E8595BF
:101AFC00737E8B4A84848F5F7F839D7B7C9A8D73EE
:101B0C007E9F628E8B9C90706298BF88829BA98E00
:101B1C006F839C69748B7D708FA7B0A85969A99E3F
:101B2C006971758E685B86675D6A6C60A37A809A52
:101B3C0076635E78797A5988764B73785671705FD4
:101B4C009079826E66766C5A8694677D8263508635
:101B5C005F675D6D7674B3756D566470A18D7E9202
:101B6C00748455948D6D5782958FB87F797F706989
:101B7C00A2939AA996896270A4AA919776A8B38524
:101B8C007FAA8D77969EA9898C99865B8A86AEA250
:101B9C005B8C97A68AB5A4867092A27FB4A1897239
:101BAC00624BA0A06B758B9F939D877C6FA39E6CE3
:101BBC006884808A7F6AA08977686B70748F986C50
:101BCC00428E8F6F6D9A9A6C745F77525580635EFC
:101BDC0078798D8F4D60697A88877A5D6078935EAD
:101BEC006C8766435A7A877B5A5A63667EAD9F82AE
:101BFC007467675D4C7B91775B848A8B947F7F5293
:101C0C006E8CB89FA295717B5C7997A97782657869
:101C1C00ABABB387797C9281BBCAAC7C6D6086A67A
:101C2C007966568D8D7C93AD7E8B9889A1A9B2AACD
:101C3C0078415881C5AE775E4E6F92AC8F877C81B0
:101C4C007A9190A0B07E58477869706F5E727F72FF
:101C5C0085788685707B6C7398AA63885D737644EF
:101C6C004971B4776F83A7B3B39B74638099988CD5
:101C7C00666C61526A6D8C9876859C8696A38C8D69
:101C8C008788978D536E88898983754D4D87BA8D5A
:101C9C007A8B8E8C8489909B7558676C9693794E51
:101CAC00428FB88F655370A58D6272775287A56984
:101CBC00677E8A8D6A7885938E68645D66727D63B3
:101CCC007890A8A0697B76737A616B818494887410
:101CDC00797F736262B1BAA77D4D859EB57E877A96
:101CEC009BBBB8B575816C865B5070A8A9846C7C65
:101CFC00B2BF905E8192D1B18B4F57738E7458A83E
:101D0C00BBCB9F5D4EADA66867637FC3C9724F6343
:101D1C0088896F4E678AB0B660597C98767F576613
:101D2C00AE7D5B3D72628974646E6194786C526BAB
:101D3C0094B0A26E5087A26846677991875B6873EE
:101D4C00949AA5656378634C3A7BAC9E5678AB87C6
:101D5C009C884B497D7C719C5C6988605F92AF9CD0
:101D6C00B47C748E968A6969758D737E9188679040
:101D7C00898696A2C7AA905E679B9E6975608CBF88
:101D8C007E6C8684868293B2C68188A05FA0A19F58
:101D9C00624D4D6FAE7E71979195A5927C9899810D
:101DAC007F5D7AAABE6338267DA78672658184B66C
:101DBC0092879A89929D817870764963536499864B
:101DCC006D76AB65737D8E7F8388A7A36685907FC8
:101DDC004A58486686657F94849FBB765F7685B843
:101DEC00A06467A38662643D5E5D5980E3CEABBBA5
:101DFC004B2E55767693765E9DAD978A6F41525BEE
:101E0C0068BDBD9AA05C50777F75AA87578B7660AA
:101E1C00878E648D7F82CDDA955352515A6F8BA386
:101E2C006D416E9A8A6A907C727A8ECAD2A27B5964
:101E3C003A343D85B0A6746B798DBFC2705688A7B5
:101E4C0094B79F5B7E6E3A537E8BA07471A4998578
:101E5C007B59645D8B93C8C18C894546658A5897BC
:101E6C007A78AE9A68789582B38A6F99BD6A8795AD
:101E7C00676A5D3A65B87C739D8C78878792998088
:101E8C0059795F67B4888C81696A9685528F838D86
:101E9C0084776B8F93699F827478867EB37D537938
:101EAC009578646E4578889463858B84B1694B7E94
:101EBC009BB392726D8C89718860635C867B8E9605
:101ECC007C915D5795AFCCAB4D5E839286775C6A07
:101EDC007571638599618C857090CADBC1833D787F
:101EEC0095B59A653B49898C7B5C87988B5784C5E3
:101EFC00C9A58A8696AA8C6B597B66716B5667A0AE
:101F0C00A483407DC3A1A77381828F70777481767F
:101F1C005578657A82814A4C8CAAB2AF99A59559AD
:101F2C003C5D783B88978391838F7D937251777F4B
:101F3C008E786DA58D606AA28B9685667378947089
:101F4C00946D799C7C657F92AE9D40619E998D7756
:101F5C0032717C6E54A3B2819459598EAC87925EC7
:101F6C00638DBF977C654F63635E649999C28E6382
:101F7C0071A8827D7D566D90BD9E774A769374557F
:101F8C0081A386799B8791A56C9C925E7FBAB56282
:101F9C0050668B8161A9A0958E8D805E806E93C1F9
:101FAC009169959B7F6A445CA691819A635F8DA22F
:101FBC00787E9C8198A0706D9D694B50498AA8AA27
:101FCC006D63929C69525696BA8591729890653D54
:101FDC0049605F89AA8E485970A7813E70B487B555
:101FEC00B73E858756626A4B79B2A46F38599BAF5E
:101FFC007F708086C0DC7A65916C61643B6BADC090
:10200C00743F679CA3847CA2B6A6957D7F92866064
:10201C0078698E9FA56F2947819A9BA0A0B2AD8C41
:10202C005D71A0A47A6D5F84A88674542D377AA74D
:10203C009CABABABA5686E7F9EA07976859C777BBD
:10204C0053234B6180A4BBA4A3B4774461898183DF
:10205C007D81CB8F46634D46634D77C2C0A2ABAA40
:10206C00706D867654757F818C779D775A5D424F63
:10207C0089A6AFBA8492A8825F655D869E7D689AB8
:10208C00A35461556B81785EAEB0A0B38A74607650
:10209C00747D798C7BA78F7C533B3C5C7CA3BA7D95
:1020AC00C2A9A04960768079729298DCAB93511BDF
:1020BC00276B7DA093ADEBB050608D515D5C86AD10
:1020CC00D8A6768E513A6C7070AB88A5AB846576C9
:1020DC007E5D6C7B91B3D46A65604F69928472A209
:1020EC00B5CE7D556889626C7A8FA5A7815F724FDA
:1020FC00607A8D8CA4AFB58E5F588480626F94A784
:10210C009A9F555B6140649B919DC2938E88595FE9
:10211C007F7C70867370B09B50655A507F697EA22D
:10212C008F8DAD8B6E757D73644F73A2BB9D545EAA
:10213C0063A986777A6975A298626891B59C5245B5
:10214C00977EB4774B5B909096845F8A83A480646F
:10215C0074B6926F4E7673A5996F8296B28A7F573A
:10216C0066729C967266BBA689685A686EB4A47334
:10217C0089A8817F655F89A1945F5D8594B4937E06
:10218C00888B929D5863977D74686691A79694533B
:10219C00527DAB96A4806A75AE88557E3E58878179
:1021AC0081A782A58232419CB48D928189909F5FD8
:1021BC0083783467928F867F807F503E75938B8CAB
:1021CC008794A5A978896431587C858082849E7611
:1021DC004450998F6D85A1BDBD9180774D4F888BF3
:1021EC006C7A9E9A6D544C7B8C918992C0C0A99F3D
:1021FC00634D696462736B77A0848A84687C95896B
:10220C008F9B9EA5C0876C7D716E5650588F6B85C9
:10221C00977B78879090A67889B1BF817D6A536E41
:10222C004E444B6D88898889A59F919E6F697DBDB1
:10223C00AA7C7C5C80885B4A525D838A787CB096F1
:10224C008D99706C9FAA75775F6B9363475064A0F0
:10225C00A8967D93988895797AAAB3645270718701
:10226C006C5B6470758FA58C8D85A7A9766896AE0E
:10227C00823A6592836767686E9B84ADA2875588A6
:10228C00B4918C91B892523F62688D7D637DA6703B
:10229C0080868B85739B9DB88C94736E455D466F61
:1022AC00917D8A9BAA85926486728C7DAAA9A99439
:1022BC007C71494E4B8A72887B969D9D85806467A4
:1022CC006E8BADAA9B63966C483879858B7B79B500
:1022DC00B088828A666A78ADAA934E83926C493D27
:1022EC0078A99651919EA6977E4D6580969F98757C
:1022FC00739B68523B638DAE7B7298ACAA884E5A26
:10230C007D8396A78764AE856848426FA8877293D1
:10231C008EBBAA5050766E84AF8253AFAA86583DBE
:10232C0052ABA46F8888BECD713C5C6A8AA3954C75
:10233C009CD091732F4A899D709091A3D570505762
:10234C004A57A9A85C76C5B8864C317A9B7775A597
:10235C00A4D6A266634A4181A675639DCEA2762D52
:10236C005E8C8A68899DB2A26882413C65A27C6CB5
:10237C007ABDC07E4847847D827BA4ACB1827C5000
:10238C00485586785E81C7D46A7F496D6A807A9A8F
:10239C00A08AA6A667294C668F647581E2B06E6030
:1023AC0062697E806EB6979CAE914C4D62835F6C79
:1023BC0079C4C481775A777E836F977794BB945E88
:1023CC004E4C79756C7BAAC4899460636F81828949
:1023DC00899EB4AC774B53716B5A877ABCAA95889B
:1023EC006A787A7D6672979B958C75725E5A60944A
:1023FC007599AE8B9C736D80916E8190A299886C4F
:10240C006E6E5D798F8681A08AA16D636F747C88F6
:10241C008D9D987D837B643E6F769177A2989B907F
:10242C005B6B708B788581A58D9B826F4C67918CD3
:10243C00776BA58C9D5D5969878386989883759079
:10244C007555498A959D647FB3A67D3C5C869277D1
:10245C0095A6A67E7787724D5F88B19A6DA39B97E0
:10246C00493570967C809D9C9A7B815C67628598CF
:10247C009B698DB1857A4359918C83B39F8B7582FF
:10248C0076685478A3B99A76AD896C42445B7A8F9E
:10249C00A5ABA28886855C586B738EB08B949971B2
:1024AC0078784B4F99A5A4976A81967D4B778B9240
:1024BC00928991A170506F49517EA091AD6E7D9320
:1024CC00904C4A8289B683847BAD5A6F444091A26A
:1024DC0090949B77927284527E63A6908E6D87A1A6
:1024EC006F692D87889A6B9372947C8D8974787E32
:1024FC00968388579E816E4F9290A384708F947BA5
:10250C006FA27288928B6FA15C66AD74448A908ABC
:10251C009F70767D8D649D96968A7277828C528799
:10252C007668959D8C8188906B697A969E8D986D56
:10253C00876F6E636C7B5F92A388647D8B82516620
:10254C008CACA3A27171854767647F7A899B948553
:10255C006C8C77656C86AFABBA7654726B656B46D8
:10256C007EA7ACAC60688694577266ABAEAAA766C1
:10257C005E71705E5F63B6B4B94A5E928F617370C0
:10258C00A9D492B8844A52755776558AB5C78747ED
:10259C006A83656D8187D1ABAA937356594C656676
:1025AC007BC0B59775536B737A827DB2BFBE826167
:1025BC005F5E546C797BA2B084896A3E58709695A4
:1025CC00A0B9BF976E5C5F575C5E9599AA977D82A8
:1025DC004357788C8996B1B69C815E5B5D6872A31B
:1025EC0098729D77736D3C50A1A297BB958C8B5ABA
:1025FC004F716C819A9A8587936C5F3D5283AFA91A
:10260C00A7A08A9B704B59688CAD85907E81845AAB
:10261C004C576C8CADA5AB80848155676690B488A3
:10262C007E7C7B9F6E43606A799F9EA49A69917BA6
:10263C00756783A69896636F7B8E61657988898FA1
:10264C008B92706C846F8B9BA498945761719C795E
:10265C0064678F938B80687663A28C8E90A18F9425
:10266C00575D6E7391907D919B69826A59409899E0
:10267C00919BB39E9D632C6C6D8D8F8C8CA2797C01
:10268C006B62446E9FA8B6978B7F8048666F7AA466
:10269C00A08B9F915D5C4A497EA08AAEAD988B70F1
:1026AC003A4C8A67ABB1789599616553427C9EA58B
:1026BC00A9B0828C623F53939293BA7C9CA96638E2
:1026CC0051587690A0A9BD9864744A576191A5C5DC
:1026DC009F799F7C43375D83B59AA2BBBA72583001
:1026EC00417A85C2B2A68E9A92511B4B8AA3A4A2A0
:1026FC0098A9A75141456060B5B09DA47C89653A05
:10270C00388DA89E9F99A5B350384C5F8695B2A67C
:10271C00B47B6C654F3C68A5A6B48B909679454DFF
:10272C0053748587B7A8955759536D6A99AC9F997F
:10273C00868E606C51667DA289C2A476584166640F
:10274C007086D2ACA88A7E465A546B8E7E84AFCEED
:10275C009559304C5D8D85ADB1B29999523F6C6FE6
:10276C00838C9BACC98D66455C586B7AABBAB196C1
:10277C0084623A717371768AB1C1AD69346B5973E5
:10278C007B98A9ACAD827C45527880858D9CB5AA8E
:10279C00934058776C837EA0B0A2746B5D6D7764A8
:1027AC00748B8C969B9A6A5B6A6D98878C909C7DD7
:1027BC0076715A7E6D76A09D80A0927265566A984D
:1027CC00A48CA094827D8155506078A08A6B89B6C8
:1027DC00907B585B82947F939E7D878C8A605E6031
:1027EC008C876682A9A88D7A548193768A8D8C8C7D
:1027FC0098805E6C6685645E73A2B08F867476700A
:10280C007879837A9397B07C5B748362495582DDC7
:10281C009A8F827A8E765D72858CA1A88372886677
:10282C00694A4D7ABBA09A90729872545A8091ABB7
:10283C00A3797E917B6047426BBEB99D9D6F888B5F
:10284C005A486587B6C0877C8F79713E335EB1C1BB
:10285C00AAA16F818F633F5069BDBC8F7392816F4A
:10286C00502F679AC19FB38E73786E525D649CBE75
:10287C0098A5867A6E543E4983B9ADA59D7C80811E
:10288C004A555890AE8796888B6E534D667BB3A98C
:10289C0092988C776F67617A909F89928B81715631
:1028AC004B757C9DAE96829C8C5D67647392906B2D
:1028BC00958B76666B607D7D8BB0A1707AAB6A6A06
:1028CC007A6F9DB75A809462776F5399A27BAF93BE
:1028DC0069838C71688086A9A25D6A8C6F53695B71
:1028EC00A0AB929393668184687E7795AFA872694A
:1028FC005C855958709BC1A39D7D526E777289730C
:10290C0091B5B5916F3D5854597170AEC5B19B637B
:10291C004D706C868E82B2A498935542545B819014
:10292C008BC1BFB16D4A4D5D7B7B8FC6AB999D65ED
:10293C004C413F5F9E8CA4ACB29167494D69819527
:10294C00ACAFAEA878613A4A568D98A394B9A67AE2
:10295C005F404781A383A2A4A095883F665E6397DE
:10296C0099879A94786C5F496C9E9EA39FA2718CF8
:10297C00535E786E8AA895939C846F5E5347818DC5
:10298C00A0A0B17D797B5E846B5B8EA38E938875E2
:10299C0072715468788C9B9D91707771838D667978
:1029AC008E93A377747274837E6A7FA2978A725C0B
:1029BC00658B917E708982A8844C69658792746559
:1029CC00A2BA9F81605D90947B606B8B9CA05D68CC
:1029DC0076749D815F829CA3847C5B7793A57A5FE0
:1029EC0092789E77595C7E86928686919B807384C2
:1029FC00588098987294738380695D5E83959A97DA
:102A0C009D7E8D758170706E948F8F8D7D747A78AC
:102A1C005376758F9DB089787A83847F6668979298
:102A2C008D93715E826D7A727A8EB59D756975899A
:102A3C0095875E82809D957A4B707E84826F8EA086
:102A4C00A370775A7F8C977B838175AE7D53487FBB
:102A5C008C918579A3A37E6D61688A979883777131
:102A6C0090935744648FA19A828C987D71634D74B6
:102A7C0093A9AE757D89896C544D75929CA79C95D4
:102A8C0077755F67688098B5928590726C60706698
:102A9C008A8FA19CA76E686B57797A96969A819AC1
:102AAC008364597685939389859D9062764177945A
:102ABC00A1979284869D5D4B638898A78D8D908C91
:102ACC0068695446838EAE9B8D79957A57575F9A79
:102ADC00A599998F7A865F6D535C7A9DB9987B77AF
:102AEC007D696D3F7FB7989FA16E976F495D536766
:102AFC0076A9A19D8087707959569299A1988F8655
:102B0C00935D606654638FA9AD9383797A6F4E6B36
:102B1C0089A79BA9918B6E556B5E4E698FB1AC9258
:102B2C008D6A746870778D8FB0B69A6E4F68696DC8
:102B3C005C6EA3C8999D6C506D76807985A6CAB3DE
:102B4C0076505358756C5E8EBCA9A2905050697724
:102B5C008C88A2C0D394614C4360676184B7AFB5D5
:102B6C008D724E536671849CB5CFBC6B5E48535AC4
:102B7C00626F99B6B18B88714B6F59739EAFB0D29F
:102B8C008A696F4656547487AB9C9087925D5557F3
:102B9C00559CA5AAB0AE7788614557678DA79C7EDA
:102BAC007C8C895B554D88B7B2AD97817C73515144
:102BBC00587AA39F957D739183584D629EB2BC99B0
:102BCC008297796260526C928E968C73838A6D5662
:102BDC005A7499B8A1949E98736D4E53838B8E89B9
:102BEC008481968C694A6573A79E95989A96735EB4
:102BFC003F5E7F9196A08E8D9A865B4D4C808EA405
:102C0C00A196AE9A6E464A557283999EA89D9E7D5A
:102C1C005841636A97AE94B2B48A5B4E3A606B903B
:102C2C00A3B9A79A796A4A465C6FB3A8BEB39B6DE9
:102C3C0051384D6272A1BFC5B46A5D5433555B8780
:102C4C00B7CAC8BD794D394160717EB0CDD39A5C9D
:102C5C00533248576B9DBDC2D7A364392C5275773C
:102C6C0099BDC8CA83523E3C4E6E8DA1C1D4B38D62
:102C7C004E254263748BA3BECAAE6D443A4C6A8136
:102C8C008BA0CFB7A97B44475C6779789CBEBC947A
:102C9C005647487E7E7685ABB9B694585869737F93
:102CAC00676BA4B4A7765F4A668C7879889EABA8CC
:102CBC007164857F8B814B6FA89885796266898D4D
:102CCC00796F8D88938A718D9D928565568E7F73F1
:102CDC00777E7A96867B7E7D8A8C786D9D96A68C87
:102CEC006156826E65757B9CA58F796F798374753F
:102CFC00679AB0B89F7F57636D4C5D6C8BA9AD9E86
:102D0C00876D746E666E839FBBAE9E895F5A4A4C0C
:102D1C005C7AA0A3B19C7973625B717C97A9AAA21F
:102D2C00A0825D4E376078859BAFA38C7E694F5F28
:102D3C007D8BA2B3A9A3986E5B3E4C667489B6AE2C
:102D4C008D797366606F7993ABBD99968062566688
:102D5C00625A7D99B9986B68766E867472A6C1AB0F
:102D6C009A74566969815D698CA9A67350687481DF
:102D7C008C7584A4BC9E875854738277718AA6A6DE
:102D8C0083525466898D7C8893ACA98B6262607E79
:102D9C00816B7AA6A3906F455D81898A8F88A4AFD9
:102DAC007E60725B718B7277A0A59E815052688297
:102DBC007E8191AAB5A3685273787C75656EA1A0CB
:102DCC0093745C6F7E80797B81B19E8A6268768415
:102DDC00947A7570918F93697E786F7B787983A8DC
:102DEC008C867C8970777A86777C787788909D7EC4
:102DFC006F648168997A6B8A9D947B76708A8484DF
:102E0C006B767BA199816C6969818F64798FA695AA
:102E1C007C776E786F8D77818D7E96818969756EE2
:102E2C00797E85958A7C838D84786D7D89A9837E56
:102E3C00636E888781716B7AA0A17967788B9F8488
:102E4C006D608D99AC8959607EA0947C646595A267
:102E5C006A797281A697677A736DA58F69718B8871
:102E6C00A0896A70847E7B766B8A90878384668067
:102E7C0097737B927A918F71857978857B79948819
:102E8C007F7B7368719577728689959E8E65716963
:102E9C0082948284837C948B535E6D949992747B20
:102EAC0085A0A26B64617EA190776E6EA1816A6130
:102EBC006F96A7926D6670979D8F7F7D858B7271D3
:102ECC00697F7D7277859595956F73707B87848507
:102EDC009FA3917D5D5F6C85737C838B9B9B7B5BE0
:102EEC0066678194858BA3989B8A5C49515A77AF0E
:102EFC00AB91928A756F62547490A5AF937477936B
:102F0C007E60413974BDCD9B7B53658673616A8E3F
:102F1C00B6D09A625A727C79593F69B4C7B18A4C5F
:102F2C0051747D817F7FB0B7917D6C60757D6D63D1
:102F3C007C96A79B7866657881857A8D9E9B847438
:102F4C006869868474738699A58359617AA9A67A6F
:102F5C0066708FA1905B4C6B9AA9A0696285A29553
:102F6C005E505DADC9AD684C6395AA724F5582AD8C
:102F7C00BE77505D7FAB9E72667EA8BA935A46644C
:102F8C008D8B8677719AAB86725C538C95959390EA
:102F9C008288867077726F6D818A96907D7F75714D
:102FAC007B747B92A4B09372565A7B8F827976761F
:102FBC009A908A7E716E79727D9092AC8E816F6ED2
:102FCC005E6F798C978C7C69808FA07B655675972A
:102FDC00B79467647B9B8C7C526091B29A7A525600
:102FEC0094A29F784D74A69F97634F7398B089668F
:102FFC0055799CB277495778A7A3825F6790A888C8
:10300C00694C7CAAB2A06D6481957E7163668B9CC1
:10301C007F7C797C96825E62708CA2918E9595886D
:10302C007456667E9A9A696E7788B187546D6991E9
:10303C00A67E7A969BA6955747618C9987605F7C94
:10304C009F91845A508B9CA2997882A0A4906E5820
:10305C005B778588777A7D8694766C76728D9D9475
:10306C009385848F9074746B61707977787E758D8D
:10307C008285857484989D8E87717C8598927670F4
:10308C005F707B6D72667A949583807C7F93888168
:10309C00717B8DA89A95795E6060667180718E8F58
:1030AC00949389766C7376928F989B9B9A916A54C1
:1030BC00505C8789897D767D8F7870686995A3943B
:1030CC009F8B88A98B796553648B939D7F70635E0E
:1030DC0073767B909F939280818E9D8D8C6B5F809D
:1030EC008F8E90795C5E5866758D9AA98E7A7378FE
:1030FC008C9C827D858495927B63746A766E6B76EC
:10310C00909D9990737F797B898082969099856C3C
:10311C00695F687B7B7D8C777D9293998A726872EC
:10312C0086909285818C8F77665864898E89706EB3
:10313C0085AAA8986F557C909982767397A78D5F16
:10314C00444D739680726D90B2B68A615C6F979C99
:10315C00877D8298AA8E664E566D827B73878EA36E
:10316C009076706E82928C798F88979680756D713F
:10317C006E72747E818378766E819192938A787365
:10318C008279888B928F847E787876797265667A6C
:10319C007E96A0968B715D5E6A7F9997A09A8C8AB9
:1031AC00776E6B6E7076777D93989C8766535D77A0
:1031BC00889192979F9D8C755F6479928172767AD3
:1031CC009E957E665D6F838A858A90ADA8907A6C99
:1031DC006F858672787681827D6E797D8288797C26
:1031EC008E9B96988E98A29873645C6C7F766969B6
:1031FC0077808B71646075838C797B889DB39D829D
:10320C005B5F67736E76748CA39688797477867D12
:10321C008794A0ABA8968B857C735E565D75898E62
:10322C00837A7A7F7F6D676B879AADA1939A989218
:10323C0079635366718A817B79797F868075807F0B
:10324C008C868D99B3B1A99A817E7E7F6E65636AF7
:10325C0077756A69666E75675B78859DA69B8D8EA2
:10326C00968E8868696E868A89726E756B684E5701
:10327C0061778F8D86949EABB198837573837A75C5
:10328C006E6E818E7B625F6170726869778EAEAE96
:10329C00AA9C888996847F817D81928D736F6276DA
:1032AC007B7F7A767A7B8D91A6ABA7937D6C6377C7
:1032BC0083858D9F989993786C6C7075868B939C95
:1032CC0090846E565266748B92877F7A79808A8648
:1032DC008785838297A3ACBABDA77E624941536BA5
:1032EC00676B6A666A5E586162656E7997AEB1B358
:1032FC009A78646A758984827D66756D6A67707266
:10330C007D6D595A628A98A38973645A6967797971
:10331C0082968F8778756C7F877B7A7E8EA9A6A024
:10332C009F8B878589867F84889195909786777304
:10333C00747288A8BABDA78F828179858D95A1AA50
:10334C00A3ADADB9BEA88F7070799395988C82851A
:10335C00877D706461747B818796959C917A6A6194
:10336C006A767C86816F6B6C5C443020262E3A44E6
:10337C0056626B726E5C5B575560727D6A675B6FF1
:10338C00646F7F7678727C7A8390A2979B8D808510
:10339C007E8994928E98807C7D8AA6B2AA96827B36
:1033AC009AA1A4B2B1BDBEA899848383908F979043
:1033BC007A88888B8FA38B8A8F919CA4AFB8BFB867
:1033CC00AB96847D9B9DACA68E7D789195818B91DF
:1033DC00796F5D635E76807A6A625B556C67725C4E
:1033EC005E53525158625976705D4F61515B6A63FE
:1033FC006F686C5A545556525D646264586B868C77
:10340C007D7066636F666973808988928D868C8205
:10341C0074767A7D86929A947E8188939E91827A34
:10342C00827C71888A8998896B6C8488B2CCC7B687
:10343C009FB4CBE1DCD1B9A4B3ADBECBCDC4B9A2A2
:10344C00878B939A98AE987F8B9398A094815C5BB2
:10345C006A5A6B675D5D5F57503A393041555A5B1C
:10346C0062714B596E6F68816F5D6F757885A29133
:10347C007F626E697584796F717E7A9290826169D0
:10348C005B6B877D818476697A7577736C5E5F562A
:10349C0058626C74675B63696E91A0A5ABA8948845
:1034AC008F919AB5AC92A5A9A4B6C2B6917B898529
:1034BC008296807C887E6C625F6486816B758C8D55
:1034CC00898B775E677C867E7E7D83837B77637357
:1034DC007A8383715F779DA59F917D7584999E8476
:1034EC009CAAAB815F6280AFB2B3927A8FB8C2C034
:1034FC00A29F9C8D816E748AAEC6A258525E89932F
:10350C008F735C6A8DA386786F7E7D6831365374B9
:10351C00979050303A545330312B465A684D556F72
:10352C007570655B4D6B7A86907A687985876B745C
:10353C00829099939DA7C5BBA0868C82849A89940E
:10354C00997D6F7F89705D68697D89827C95BEAD40
:10355C009C979EA9B8BEB4C2927D929987848D9592
:10356C0096A3B496A6B9B78C838C7F7E928AAD9ABB
:10357C005570909C77897C7B8D925D57868B7F678D
:10358C006A656C638A9EA45446657055455B52907F
:10359C00958158718186746D6B656B5E888E6D3C00
:1035AC00658A6C455B5C5B6E614F61796E7C77788C
:1035BC006A564B63958A45609D935A5482848374F2
:1035CC00687B936D72A9B4908D827A939C5A3890D3
:1035DC0095554B969782858393CBB880C0F7CFAF28
:1035EC00DBDBCFEBDEA5CFF2B786C5E4B39BABA894
:1035FC00A9B2635C939355648D7152693D43775DB9
:10360C002C3270615640607581594961715B51640F
:10361C00666C7558317A73513F6862585D50668D8F
:10362C007E58646E735D737B90919A657DA19688CC
:10363C008F9F98A99CA4A5BC8DACAE8C88879894C0
:10364C00B3AD7689B7A68B989976ABC4C1B3AF9757
:10365C0099BDA47AA4A18A95BA99568B7F5C4169CD
:10366C003F355A6E615D51434F595A35545E6C76F5
:10367C009A486E866C414F653E51518B63746D94C4
:10368C00685D62676F6075838A598E7B7E65787C16
:10369C007A637CB7A195ABD1A89EC1CF9E99B7B6E2
:1036AC007EB0AC7F81857266614D81949489B1BC8A
:1036BC00969196929996AE879FBEA48492986C8EA2
:1036CC0082858895899E8F98827C837D8793894695
:1036DC00A39C6A548B6D3D6076655E8C868C6D7593
:1036EC008092736870976358ACA267599D633233AC
:1036FC005B37254B5F4E3F60979A7986A4966CBBDF
:10370C00C1A087BDC79C697AAD8794B0A267699048
:10371C00AD755A67743D45875A41608E724B3A615C
:10372C00735070836A677AABA69498C0935486934F
:10373C00806C8E9180524B6D725675977D7383A4FD
:10374C00A3C4D0D286A4B67A7D97A299BE9B7D9253
:10375C00AF9B92A096726E7B858CAC734BAB883E04
:10376C004B94705F9378464F8B826F719690737AFF
:10377C00AAB9A57174A86E30457D5D68826C4752FC
:10378C0086706C6A7E8C646885BB965C9A9A585A73
:10379C008C978DAACEA98C87B18790A0948D72A797
:1037AC009BC78488957B635F714B5A5B834B354811
:1037BC006A4B537266596089A08E699D865B6590D1
:1037CC00686282929C7B6A988B6B8E9188829294B1
:1037DC00BB817BB7A27187A68681A2A39A82749BB8
:1037EC00776F88AA7F959AA7936FACA17F58918524
:1037FC007772989B908473907F8B9AAF989A9EA8BF
:10380C007B86A195676C8D7A6A6494757C6462671B
:10381C00615A6D696070876E58805F66535F507235
:10382C00585657526240404E614A65777C77924DAC
:10383C00737660616C755A847DA29A9BA4A47F9365
:10384C00B4937FB5BDB67E8FC1908FA1B87F92AC7B
:10385C0099927E849161617090616E9591AF74A51F
:10386C00BA907DBDA8718FA39C807A9A9E605E8C65
:10387C0090647C98AF8473B98F557EA769598590F5
:10388C0082616C937842598757596F7E9F5A75A500
:10389C00753D788B4F60717A7264516C7A4E5F957E
:1038AC00716080B38C70AEB07B80A496929798A414
:1038BC00A7999388A47B6E80784B58995A699986FE
:1038CC0054768F6F7B72736A70786662777B6C77D5
:1038DC007C6E8CB1789CAE73728B8D7383858F7A72
:1038EC00869A756B939172748980869F7C949F8A5B
:1038FC00869A8E7B8893958F6F979C6A7E9F8E5C41
:10390C008182AC587DB4786E77A16E7A76847A8495
:10391C006485815C697E7F53698BB7517AC79562E8
:10392C00A4C58881ADA18D9B889E938A78AF7D704C
:10393C0085A387498396694A89785B516B574952AD
:10394C005F54574E6475385773824F5B7D7A576856
:10395C008D66567F68496E7C736E8B6896926C7C14
:10396C00ACAD5F8FB99F77BECF8490CCAA6FAEBD44
:10397C009D94AB8890937183B49655A0B47973B22F
:10398C009E6B75A5855D79A182758D8AA189889BB1
:10399C00E0816CC3C2757ED18E7C93A879828699A6
:1039AC0098867F8E9C6B5289A72E59996E43596FBE
:1039BC005D40404D554D586F62734F647269408045
:1039CC007D3E5F7F6C45764C58573E406C595A8310
:1039DC007B6C71787E7D81BC757EA49D6994967E8E
:1039EC00878A817DA395ABA5CAA09B9BB688A0BDF9
:1039FC008690A8B06EA196937B7E797D78808F9708
:103A0C009B88927E907F99858B8B837F7B75737C53
:103A1C00685458735E596B8A707277736D78865AD6
:103A2C007688756F7A877B807E6F71807874859AC3
:103A3C00988690AB7D9BA962909A717897767B8BD8
:103A4C007772827C75838A8EA1858FB890B8997FA6
:103A5C00B0A6719BAC8D82949774768A8A658C9192
:103A6C00947494AE9F937B9D938A74968B85968861
:103A7C00797F7B737F7687838E76899A935B6D983B
:103A8C00514A777045617E73365565532C516B5591
:103A9C004E53747A6F2D967C3F558C6C506B817D98
:103AAC003C746F60567481926685AFAB6E69D0863C
:103ABC006090BE707897AE8D6DA6936F7E9E908051
:103ACC00869CA9955A9A9B74689AA56A7C919D6963
:103ADC00838E816F6E8E967C7DA9C06E68CE8D684C
:103AEC008CB1827A939F8C7B948F9081948D9A8DDC
:103AFC008A9BAF616AC17C5190A859789086616BA2
:103B0C00796E676F75868B7282947E468491685B42
:103B1C009396597594855665936D5E798880898DD9
:103B2C007BAA7661A592638FA2948996A5926B73FA
:103B3C009677637BA3788F9B8D8D696A8B684C7BA2
:103B4C006C615E6C6D5C48505C4C656D776786840F
:103B5C007B845B72735F648870818D838F827A8BB8
:103B6C00786B99968E8EB59EA47D9B9B6C8E8E9356
:103B7C007AA0AD8E81A38C787395969296A8A59910
:103B8C009F80A9816E7A987269968C7D6A89805122
:103B9C006579817088948C926993907B5D82776D46
:103BAC00748785827E73866B727A9F79A590B185B6
:103BBC0087A77A7F77775B7F6B846B89846C6B7C50
:103BCC00666C8282818299648E8F6A74865F5A7A5F
:103BDC00766B7C9284628B78676F8D936EA08B89E9
:103BEC008C958697806B8B81748B918D8581A87356
:103BFC0073879F8085868294688C8C8566777963C1
:103C0C005F6C7F595F7E7B5E658581838463988260
:103C1C006193A07973957D7271827B69848A877EAA
:103C2C00848890A2737998836A95A478859D886D11
:103C3C00898C69729788768A9B7798916282836A5D
:103C4C00658B83717B9074646F8870557F8E7465FF
:103C5C0095938C4E809D5F5587A86D88AFA78295F4
:103C6C008BA786768DA6927FA0BB9341AD995C53B2
:103C7C009EA06A91B49F7A8A948A76648F96758393
:103C8C00A2AE397299543A717565707C9C8A7467CE
:103C9C009071655389826468B187267F74433F7342
:103CAC005C666E788F917069898465688F8E7F737E
:103CBC00C26C568F61466E6C508586868EA390784A
:103CCC0082957C788CAF909FA97BA071628088587C
:103CDC00849D8AAF9AA8A49180999F7D95AAB0A43F
:103CEC008295A15A5B8D7C568A9A92A893AB9D8E35
:103CFC006E89967D85A3C87378AB7D425C894C51E7
:103D0C008674899480919079677B837B7DA0B85869
:103D1C0077947448497F545E62918B798B998F6C40
:103D2C007B8474838FB890719E6F735E59577162E8
:103D3C006582958E7699986E7381868794BA708C0D
:103D4C0083715A69545179667569A27A7B7F88743C
:103D5C0070738E8596A372986A776077495E7A6BDA
:103D6C006C70A5767E879071807F9298AE8A8B9DC1
:103D7C005E6B6E6D4F637787637DAF7E6E987E6CE6
:103D8C0079878FA0A281A88D668082676E668A81F2
:103D9C0074849C877F8C888D799DA7BE7F9AC47C08
:103DAC00679B7959806F867D98999492A796879195
:103DBC00939D9ABE7F9BB07562997D5D8083866969
:103DCC009C8983698E8C65719190839B62937D45F0
:103DDC005F8C5044615E515370746152877B5466A2
:103DEC009A7E89836C838952679865567582717D3A
:103DFC007D8D927C8AAA7D7DACA39B916E8F954E16
:103E0C0071976D60838580817C9898819CA79A902E
:103E1C00ABACA1A468918344688C6E5D887E8D7672
:103E2C008798816C988E6C979C97899D5A7C7E495B
:103E3C005478634A735A685A6D6B5E5D8C866893CE
:103E4C009F807DAB526F906A5C7D93657B838C7693
:103E5C0086958988AAAB9EB0B4979FA8697B85701C
:103E6C005071877A707E9379728D95739AA08AA11E
:103E7C00A08D9F8B907173946C6F939669909E83B9
:103E8C007E929E95A5BABBBEA7AEA77EA5675F889E
:103E9C004E4F9069437C6C505F6963646887896F8F
:103EAC007F8E5F579F624A915D54806762755C524A
:103EBC00706867776A80877A898E5C6D986C446FBE
:103ECC007C516E6F7E705D667668739697A69BA626
:103EDC00B39D6CAFA69B7E94B287908BB38D858C73
:103EEC00A6989BA5A1A88C96AE8948998D5F6E6CFF
:103EFC00766F61648A726976877B72899F9280ABD8
:103F0C00A287748D916C736B656D625D708D75623B
:103F1C007C7C67729F94778E9F6F6F7173585D670F
:103F2C004F6A7689758F8E7982A285799F9D8A8C4E
:103F3C009B9391759A76858C646D90745595816F71
:103F4C007C9B868F96A7A190A1A0A6888F95A9AEE1
:103F5C008487CFB782BABD918991979B88929481BF
:103F6C007B817E6258566B724C3181762E647A5905
:103F7C004D5C67725D5F71695A61684D453A4F5887
:103F8C00331F57522D55695B4C696B6A60728167A0
:103F9C006B756B6B7F68819D82679FC39AA7C6BB4D
:103FAC00A8A3CDD1A6C4D6C9BFC8D0CDCAC4E5E399
:103FBC00CAB4BCC7B0A0B3AE8183959B827E859DED
:103FCC006A6A87625861847279687A8D7369918F95
:103FDC00698487757B7E7579455C6B4D47676B5340
:103FEC005E405265483F583F2A3D4F46364C4F394C
:103FFC002D465351455F79697E778E8E7D889D8FD6
:10400C00829CABBA9ACFBD8C84A18D807D83A28F0C
:10401C00A093C4AB9E9BC2A09EBBB7C0A0C2C5C898
:10402C0096B5B7AD93A4B9B39F92C4AA9095AD7A47
:10403C008192957B7A83756C4A5A4A36324954552B
:10404C003E475F4237524F3B506152556A5E474D77
:10405C004E364947404F76714D74917C709B8C85E0
:10406C008FA69E92BFAE9AA29A798E877F8DAC7ED8
:10407C00659F988A8FA6959A899AA092ABAE9FACB1
:10408C00A88B9B917894C08C9EBF9F97A9A8A5A73D
:10409C00A8B8A699A4897D87716761825B6E7C59EB
:1040AC0061575668584D73614F5F664F5F524F436F
:1040BC00434B5B61575B5C6C665A63845C719682A4
:1040CC006880797582727A836E6B75687A64919761
:1040DC00778CB7A18EAECDB5A8B7A8A4ABB99F917C
:1040EC008EB5A6BF94A2CF9F7EB2C581A4BBC8A932
:1040FC00B9AEAC8E89848D656A8A8A68369B86587F
:10410C00438B4D325B5A4B576F58584C5A4C483C6A
:10411C00535860306377574C6F7B4068837F719B3B
:10412C008A828A7F877A87846F7E58607E696B82E9
:10413C0076655E6F6A5D6E86936B918F827B9EA3B4
:10414C00A2909ABE8480A4BA7885939D95ACC6C47F
:10415C00CEA3B4A9AAA4BECE9FA3B1AF7E8C997AEC
:10416C007A988C7B9FA7ABAAAB97896E726F837082
:10417C006A846C827880706771685F5C7762707E2D
:10418C0060714851525D59467D675F89876A6F74CB
:10419C00564156616E668884728A69687B6C466883
:1041AC006F3064947A5C789A6F638FB386B0C6B6BE
:1041BC009FB1B383A88396B4996CADB37C8A948871
:1041CC00636576957491978D6481917A8C579C98E0
:1041DC007767B39964837C805A61577B577CA17A4B
:1041EC00678D876D574E6B5053649B597A84706AF8
:1041FC00775F5292607C94817F8877685D78747069
:10420C006D89A1898DB2937B9A798DA0909FB99578
:10421C00AFBDBA91ABC5A2A6B2C6B2B2A9C7A288AD
:10422C009D93898D8B9F97717AA2825D97987C81E3
:10423C0093908A6C7685614F6B705C6373746F6C52
:10424C0061804531755940677E6164504C5C4744D0
:10425C00565D515859714D5E877C5B7588637C70D7
:10426C008571948B837B727F696E8E907B9D8B9511
:10427C00A39A7AB9A9929EAC979BB9A1B394ADB30A
:10428C00A87DA6AB969C94B0945A8A9F646FA08923
:10429C00617F7E7B76747B837D625F8362526494E4
:1042AC005C397B765765976D717C8A65707F697B0D
:1042BC008E634891644A6991503E90776176785E3E
:1042CC00678281888F99999FAD7F8CBEA178B8C188
:1042DC006E9BC494A7CDBFB9BDAFABBCB1BBB4A1F1
:1042EC009A87968B7B729C80549D7C58889D6D7AA6
:1042FC008767646D68809971828A694F56465E380B
:10430C002465583261924857715143553C5679484F
:10431C006C95635F787A885D6A877C5F8BA47E89F5
:10432C00947A7F9A73A0AE7C9BA97C908D868B5FD0
:10433C006F887468888C82838379778784A3A69C22
:10434C00CECA9FB2CEA98C9DA47985AF8F98C1A6F9
:10435C0093A393948D9B98A1A0A69070AD94518437
:10436C009156627C7F6776766F615D615D515F7A95
:10437C005E4B545859431F513E233B533F416C7184
:10438C005E4F79786768838A7F7E859EAF82649F53
:10439C00774F7E7D697994A7917B8A9A838AC5BC75
:1043AC00AFCDC6B9EBA796D68976BC9F7FBFAA9C2A
:1043BC00B3A0ABB995A0C3A8B1D5AEB3D29691B703
:1043CC0082799D7D758C908794808A796A707762EA
:1043DC006697697379584B482B3C3C1E2A484334EA
:1043EC0054514C42514341434D66576C8C66677631
:1043FC0056545A45346350546C625658614F5F663C
:10440C006F89798E9C81868882627B7D77A19A7D6B
:10441C009D9B7B91998187ABA5B8B0D5C7BEC9BF11
:10442C00AF90B79F9FB9C4A4C5B5AABCB6A7B1C37A
:10443C00B2CEC0DCC5BEBAA085857D64617E7A62D1
:10444C007776716E73666C5F777D6D8B726B75545E
:10445C005A574F4C4D5A61514F5E5D5662696465B7
:10446C006C7D718A738F855E7E866A607F7A827CB2
:10447C007885817D887B8A7F8C94929E849F8C75B5
:10448C0084827B717C827F746F84716A636D7765C3
:10449C00888A818385927E738189806F7F80827EFA
:1044AC00748B84807B826F7E978E9AA59B9BA49342
:1044BC00999189828D81808C7887816E6871606B0F
:1044CC008B7C8DA088969F889B9A8B8494817D8110
:1044DC007A8B757E8478758A848098947D95947790
:1044EC008B836C766B576E655C62635C5C514B576F
:1044FC00615E7870699886759A977097928B939392
:10450C0098A29383A282898E959AA58F8EBA857F65
:10451C00A98F71998A9294878D957C5F78776E5A62
:10452C008085845F8CB66C77B48A608A717571757E
:10453C00778C6C607F72625F7C85875A87A67C64FF
:10454C009B855E75777D61786D72605952585D52AE
:10455C006480795E848E7B76867C7B686F7C777ECC
:10456C00818C8B86797D8F8185A997809FB692935C
:10457C00AB9D9293A2979CB4949BAF827B7E8B81D4
:10458C007B998B6F829976767E836D747D768D891F
:10459C007D84916A81696B89768E807791936B8328
:1045AC0096706F84757396777477655E6C585985C1
:1045BC007184698192797E8F9C7D8E958B98A88A67
:1045CC009AA48890947D8B9FA895749FA6707D9AD1
:1045DC0087768D887E907D7C73855C787B5E7B6E28
:1045EC008C6364817E4B687E5B5F796B6088765FE1
:1045FC005A88494E724E5C65734C5A71624F6176A3
:10460C00545E786C64878B616FA0765B8878798D4B
:10461C009A6B8FA881898EA87D97A3998BACB88D46
:10462C009BADA77B8D9E999D9E7F9FA88D98AB97E8
:10463C008CA4A68D98B79996AB9F8B947A89899305
:10464C0076667B7E706D996F7C897F6D898F768F96
:10465C00929290907D8897876B747B657D8188752D
:10466C007B8B7D756D8D6B6E8B8B7C887F7AA56E4D
:10467C0059817D4E7B91787C828E928570A88E7646
:10468C0097A593899B969C72768A5F507D795F7112
:10469C006F6A795C4F7A624D63735D63686E6A32E0
:1046AC005B64383C6855665A416F6A43497249539A
:1046BC00646D5C708294635E8A665F5E7D709670DA
:1046CC007397927387956E8E959492A5C2C68BA3A1
:1046DC00B890819FA89BB8ACACB0AEA6AD958CB190
:1046EC00AFA1B4C4CFC1B4C9C0A99FB3ABAA9FAD8D
:1046FC00AB8B9EA2956E86847C7F7995946D889108
:10470C0074747271797C63897E68688F7F596F7954
:10471C00746C6A8C804F86836767786D725B6A886D
:10472C00594B75754D5572695468699256578D82FF
:10473C004C728F677669879280598D9264598C7C04
:10474C006673869E57619B833E7592605C7780860C
:10475C005F6E936E5B6A6A616A6877796369878258
:10476C006A688D8E7177A19B7284A092847A8697E9
:10477C007C7FAB866D969199937690A96F79A4976F
:10478C00757F938D8F8B8D8B8899B07D7A8A8F8E68
:10479C0096889CA9778FA69E94987D8596958286FF
:1047AC008A8BA3787C927586928286A28683958367
:1047BC009992816E938D747A889A7B63838F7580BE
:1047CC008F8D7C9B8F8E7F81A18E6D759D7E6F866C
:1047DC007E867E606E6C6B7A8B6D6B7F81756D5B8C
:1047EC007A7D545F77725476657A55495E54545E7F
:1047FC006B726F667C77695785776367898E747582
:10480C008F93685D6D66576F7C827683868F706739
:10481C00746E6F6C7E88887A97A5796B7B718081BA
:10482C007D809E958DB996877999918091B6B59A30
:10483C00CEC2A6869D7E8B9D9495859EA1AA9399AA
:10484C0077768A80739A8E76ABBA8681916E8291D6
:10485C008D908F73949C9E846177896A5C94896730
:10486C0086AB8E6D6682706D868F80609B9E828813
:10487C0084746C7A6E666967627D8B7C5E65787C0D
:10488C0089886960868F8B898275765959656471C0
:10489C005E70807D5A5B6B677F877C5F7B817A87DC
:1048AC008C88827A807B746E656D5E66646F6462E0
:1048BC007C88786D8D8A6886A5969A9A908E8F8D55
:1048CC0090847F837563726C788B7F76919C7D93DB
:1048DC00AE93A1A287998E8D9888939B80758066E4
:1048EC005A847C677F997271868A877C90897886D6
:1048FC00A98A98A6967878756C7D678C6D737E8680
:10490C008495957AA2806C7DA67792B8B1969DA677
:10491C0082777AAD646B7B7A889EAF968D667D7854
:10492C00737A96989C9F9D967A8B83997A74867FDE
:10493C005A5A8C88786D7C675263726B73707E7F69
:10494C00786A5C7187875D737551597E7955607C87
:10495C0077506B807656737E52576A665976758A95
:10496C00706170717E6E666A7D707A8A8781898BC0
:10497C0083806E718C926C9CAB737D8C90959792AE
:10498C009288738C877EA8BFA781756F838F95BD26
:10499C00C8AC8E6570827E8A9A916B838A7F7F9A6F
:1049AC00B49E8292A38B7988ABC1BA897C5C5D7111
:1049BC00849395A48987828E759DA6808C7E6F6763
:1049CC007187B09E8E828B7B6B858A7684927D6498
:1049DC004B73858B7C7E6765797497AFB073827BE4
:1049EC00415369878F8475736A58585E6D717B88E3
:1049FC008F4D426B796E6782686A618E847A948E71
:104A0C00783741456C7B89808B6B3B697B74748EEA
:104A1C0089887E876B7592ABAF7B626B62617D66BA
:104A2C00819474555B6C968B787B8B96858F93AA4F
:104A3C00B4B88E6C56738C7995A489749195868FC5
:104A4C009596979675657387A5B8CCC6C1A58880D1
:104A5C0087909D8A6D837A7B70899679717D7A7740
:104A6C009D90A3A8B4C8A66F829B8B9289987767F8
:104A7C004C5F717C95897B4F71808194A6A9AC8C1D
:104A8C007375697B7470686D747A78746062675C36
:104A9C00596E8682887DA89EA5876955576A53747E
:104AAC007CA193816F7B6676855E746B544C5B64E2
:104ABC009BA093918F8878747274476F8C624B6350
:104ACC00738091756855456E9A989DA38F93865700
:104ADC006B8A8878847D7E7B8A573C618DB2958900
:104AEC0057766D8DABA79D748288988A9087929C1F
:104AFC00897A827966949C9187816B6A889EB0AB27
:104B0C00827EB799838BA0A79C987E66697D747A08
:104B1C008B8A8A816961707B94B5B1816E8183A522
:104B2C00B7A092868F8E8878796F558DAB94624B37
:104B3C003D5F8898BDB6A28968507EADA6A58861F8
:104B4C00858E6C4E5D6F7B6F667B6447669DA8A3FC
:104B5C00805B4B718283827F849EACA371445B5FCC
:104B6C005461716449458A947D836D7A856D6F6655
:104B7C0079967977756F9A89634F6D885E577889C6
:104B8C0076827C8E774F6998A186968C7D7C8A750F
:104B9C00658394988C908D8581707B92B28F649B89
:104BAC00A49CB1A783656E81989F7167A8A589B9EC
:104BBC00C17B6F748AB1A29B6954749FB9814E7A80
:104BCC006F7C9B919885727390ABB861486C91A483
:104BDC0091807A7F959C9CA37356436A868D766BE5
:104BEC0088858E6E8790748875608F81689190A08F
:104BFC009B6F5C636086A279855B44685D72666BB3
:104C0C007E6D77928A898D6C748C80706D556D88F1
:104C1C0094919DB48E4D3F5B6D868B5E4791BDB17B
:104C2C00836D557B9272808C7861798FA4C3C37C21
:104C3C006D5544507F675F8F8DA9BBAD7A836D83B3
:104C4C007F81786C7D91AEB5D08D849C8E71673FE1
:104C5C0032728F969E8E84929095828C7552777D4F
:104C6C006D84AA90839994694C76695A6C9EAC9D1C
:104C7C00BA887493885C49506880918D6991A68F2D
:104C8C0088847D886746678D99949F9A8890875E03
:104C9C00646874787E8B8D91909998775E63586B6D
:104CAC008D876D9ED2AD826F7E7D888F5B636161D7
:104CBC008086858E9F9C815C666A6B83747E86740D
:104CCC00819786768783927383745E859A917678C2
:104CDC005D7B7F80647CAC9F7A56628AC6886383D6
:104CEC007D718B6F4F799CAA9A797B87786E7C7BD0
:104CFC00867A5E64779C9A8F778C999A95957C6866
:104D0C007E8790778171879BA58C657B86998C8833
:104D1C00604C7989A5A6977E736C799A9979759A66
:104D2C0089928985818FA06A6C918B625C4F6CBA79
:104D3C0094778F737E95A391597C7E7495A97C6230
:104D4C00B186676C67514D6A4F6B6C6290977A882D
:104D5C009A977F5558516D95947F719A9B754B6AB4
:104D6C00734F4F527C93A0A29AA09F7E764B466FB6
:104D7C006D7576848CAEC1B79E8A663C4D513A8473
:104D8C00A998A7A1C0BE987B4A518D685C7899A65A
:104D9C00BDA37DA3AB8F73673D5487A88998AEAA3A
:104DAC00B3C796597165585A6B7DB1C29E8B9EA73D
:104DBC00A26131424B64837C98B0AD9E959E7E6619
:104DCC0049515C6278988D7FABBCA191826B5E3946
:104DDC00386D88919583B6BF659BA9553F355A822E
:104DEC00A98E8CB2A4997E8967275E6B5C6B7181EE
:104DFC00A9BE979194806C61341E7E8A5EA5C3BC5B
:104E0C00C3A36F66705B3838586D95BFCAACA8AB3E
:104E1C00835C423C657A7D8A94989FA8B69B7567A3
:104E2C004D524D475F9BBCB1A7CCC2886846324EF1
:104E3C006D5C6C94A6A6BCBDA08C693E3F4B4A69C8
:104E4C0085A8B5ADC6AB807360635942425F9CC503
:104E5C00BFBD9094B0814E2C35627A5E7A9CB4D9E9
:104E6C00B191956756613C4A737F91A2B6B2B1A9D4
:104E7C006C5B5E43607C6C819DB6CEB18D93774E3E
:104E8C006863437FA98DA2A3ADB88760647E7F76EB
:104E9C005F615E7FA385A1B07A5B6E78707D64687C
:104EAC00A2B1926EA2AA6874747A8472745F5670FE
:104EBC008F7D909D767A7B817987756F838399C07E
:104ECC009F54738984747467716762676F9D7E7079
:104EDC007E87757BA7885B6E6E87ADA35B5894A1AC
:104EEC008F77885C556460688E8D6E92A8B1888AC5
:104EFC007973847780839C768BA89A9A916D716272
:104F0C00215192917C99A8ACCF9C526B9979837C5E
:104F1C004F879F9992A5A99B60564F266E8F9088BC
:104F2C00A2A7C5E19E4F4D75627B6552829CA08CF9
:104F3C00A9AF987E6A381A5775737D9C93BFB46F6E
:104F4C00586D72646E44689091879BACA38F7266A7
:104F5C0059405F6E7189888BAABBA37B5A7B6E7399
:104F6C00546E949199AFAA96877A764C624658778C
:104F7C00928E9C9E76A5AE765C68758F986E75B792
:104F8C00ACA284869B6F38516E6F857D9797A093EA
:104F9C0087927960607592816183BBB6AEA58C8A6D
:104FAC006C402E6B6F71899D949F9175855D534FED
:104FBC00709BA58096A69AA29D877A5E372C5E82FE
:104FCC00578EA19EA7887D7B5A5C6E586B8D9B9AE1
:104FDC00B0AEA6AA8B544129506A8B7263A2C7BF8C
:104FEC00817950625D705F676CA0D6BDBE8379938A
:104FFC00915138406DA3A65F84BFAC978B745168F8
:10500C006D6977858CCABBA8A19E7E6957536F6862
:10501C008E8AC1A9AE9F89764D50496F677B809D62
:10502C00C4CEAAA6A27A53504C6E876578A3A38DE2
:10503C00A3976B464055676B7680A7B2C4A7707672
:10504C007B5F5A5C7279819781AF7C8279635A5508
:10505C006D698B587398BEB19A847F87556C586F65
:10506C00817F7C91A99378676F546A676E7C849773
:10507C0085A3A7967F857D6A8B817B8C9E8D7A8696
:10508C0095766C746A6B79767B96938498A17D8106
:10509C007F8496946183A17E71A47E7D9254677304
:1050AC007B60847F7889A49D917E848182946571D4
:1050BC00869A9380857A9989565A5F72729A6A7920
:1050CC0095869091757A9A827B6B7C6C8688978C8E
:1050DC0090876C655B726365628688839D9B8F7D10
:1050EC0088787D7D68747A8A7C9C9AA48F7F71669F
:1050FC006A5462618F828B93A5A0838D83846956D9
:10510C00676D919A8D98A993866C625E5B5B5D7DF1
:10511C0085A49AA6A09775798069605B6C9D95793A
:10512C00AFADA2957557686B516484838BA6A0A212
:10513C00A36D799061526E6C938A7D9EA3A588793C
:10514C0053635C6A6E6F919BA098A2997B85785291
:10515C005E5E7488827EA1A3AC9B68686E5B6C7586
:10516C006480ADA997A28B82807F4860606B957D2F
:10517C008195B3A89B57646E6280616982A4B3B8B1
:10518C0088949C6F7E675A458386768D94ACB198D3
:10519C0062766A68795E5F86AFAFAD9E71928F7AE8
:1051AC005255555288858D98B2918B7F5A4C686DAB
:1051BC00526B7BB4C2AB928E917F6D404C55637732
:1051CC007FA2AD9399966A615A5358617199ADB1AA
:1051DC00B3A2878B8154525656677A85BBA38DA098
:1051EC008B6F5F58466D656F97BCB4B0B191978764
:1051FC004746725D7273A3AEAC9A889F7F6650600F
:10520C0063757D94A9BEB0A5B092784D4B76874E50
:10521C006BA7A3A8A8807F9B60486F826B68809A5D
:10522C00C2AB9FB49B6B4B6E737C5B4584B1A48902
:10523C00A0798176577A8163488A97A39997B2941B
:10524C00735E6C75813459837A9C97827B81627E04
:10525C007A765A5A747E957B95BF99728084805D5C
:10526C00354E747D8388959089828B7C6E64587FD3
:10527C0076868691B0AB848D8F6D623A587B7F7F3A
:10528C008C8AA0A38684726D675E716D7E959AB2CE
:10529C00AEA18F8267644648857E7296B6A69690BC
:1052AC007A7C77715D667F839BA0A4B2A37F7C6AB6
:1052BC006A48547E778294BFB2947B6F827A625B29
:1052CC0067738AA793B4AF87957753686152706DF3
:1052DC00819AB5A294847D7C77734D708A9B958F4F
:1052EC00A69C8C8E73496C6A4E6478858EB39E96A0
:1052FC008E6D697E7C49548AA1948C968F87936DB0
:10530C005E70674C627E7D939489A6976482925EF0
:10531C006F7275A5AD637F9E74977F5E65924C69C5
:10532C008B7B838C9188AB6380966F63858785B00C
:10533C005D66878D9B7E6D6B876A7C7D7D777A8CB5
:10534C0094896A8D9590798C82A5A0636A62819507
:10535C008A627D75749385808880759383787A8D45
:10536C008C9A8884AE8D64556C729988667C77862D
:10537C00938D799480728C7B6A6E849FA68B8CA2A1
:10538C00A97F4C6B6C7C8B6666768C818E918C8441
:10539C008D84787058709AA5888A999F985648730E
:1053AC00747E5B4E799C86859A898F988276605143
:1053BC005E8AA48D92A5A7A4814A677578453F772C
:1053CC0089958C9697AB91888158584E7F908F8C8D
:1053DC00A8B7988D5A5B7476323E768093938EA6DE
:1053EC00C28E757C6C55516C7DA294B3C8A09A6C1E
:1053FC00666E68273A758093A18A9FD69E767D60EB
:10540C00565D5E81A39DA7CFA796755161662F3916
:10541C00747988B0989AC796786F684A5D5E7AAC52
:10542C00AEB1C8AC9188554C54463B74837FA6BA38
:10543C00A3AB99756C7454515F76A9BDAFB4B378B6
:10544C008D513E534448777E70A9BBA19B926C6DE5
:10545C006959566370A9B9C2BBAF888759404F468A
:10546C00606C796AAEB7B88C7D777E6C5B675A7D61
:10547C009CAABBB89BA0796744514A61766C7F9714
:10548C00ABA98E6E787E6B66795F869AB0BFAF994A
:10549C00A07C64604F526380658F948EA29667786F
:1054AC008B65787F73879697A2AA8B9381617267BD
:1054BC0053608E6A888C7D998B6069856B7F88833D
:1054CC008D9D95AA988289856A76625676857C82AE
:1054DC007B7996757D677C7B7882929D88918D8394
:1054EC007E88777B70646D7388877779807C717F19
:1054FC006C70867C82A69B9283878A808476887463
:10550C007A747B8787827C776C737D7D817E8597AF
:10551C00A7A78572798C7572748B83777A7D8E923E
:10552C008681635F757286827D81A4BDA679687160
:10553C008E7765689AA77E807D8F979F7151545C9A
:10554C00708A8E8192B3B7A47A667773604A6A9830
:10555C00A780828F899A9A6C43495566878C869C62
:10556C00AEBC9D8171746A584764A8A783939F90C1
:10557C00A98F603D3A436B83859FA2B2B6A6927AFF
:10558C0062574C4667919D8B9E9D9BA374613B2EED
:10559C004E638095A5A9ADB49B947C5F584F4C612C
:1055AC009AA399AAA69693754E414038678F95B6E3
:1055BC00BEAD9F9E8D6A6846526067969BA5A8B348
:1055CC008D816E434247435F8D97BECDB6A69492B4
:1055DC006F5C52516F7D9897A5B8B9987564564613
:1055EC0043515188B5B4C4CB9C95996351444A74CA
:1055FC009D958497B7BDA26E4E514F514C5C7EA4C5
:10560C00B4CAC8B58C73695E574A6E949292A6B3AD
:10561C00B78B6956544F5142669295BBC8B3BA9F2B
:10562C0053585D4F576A7C7F9D9FA8BC8C5D595D1C
:10563C00485351608597A8C2C9AC865F6A6C6949AA
:10564C00617F96B9A5978B887B7757424A5D7E8997
:10565C0094A4BCC2B4815D636D615C5D63A0A7A5BD
:10566C008A8D80737B61544D71767D8FA8B1BAA4FD
:10567C00836A6B7D6C616E6E98AF9D868594797430
:10568C0065635D6F718386A0B5A8A68359808D660E
:10569C008067608696838E837C7175737B7F64676D
:1056AC0081999AAA848091787E91747E7974868986
:1056BC00837B808C7A707C7675736E77A49B8A83DF
:1056CC007D888D8B7888716A797B6D7E83697E6E1F
:1056DC0075838D6F6F7389AE956E6B908F927C65B1
:1056EC0080867B81976E709B708878696A828567EB
:1056FC008A8A9A928D7A949C776C7D7F676A6C8586
:10570C008F89837C70847868726D74989A9E898175
:10571C0088A09E76755A7B7673729086A1A8778343
:10572C007D72647558789694959C9C92A0957C712A
:10573C007D5E4C65697E9EA18A81827D8B7B5745FF
:10574C0074949A9D8A9394A492867469595F757C1B
:10575C0080819B96967C807D726E5E71908A919909
:10576C009B9D968778A17D4241627C99875A848B58
:10577C00979F7F6B5D708091836E7E9EA294967ACC
:10578C00928D5853737D7D74698493977F887B8A3F
:10579C007D6A7A7D8A879B8677909EAC85463E6F24
:1057AC008487604D7D949F8A8B7191876D71727225
:1057BC00809D81909A97A1955955737274686085F4
:1057CC0097A47D998C8D9E68657181749893949D36
:1057DC00A49D87604C5F69786A5F718EA497A699C7
:1057EC007E8A6A636578678AA0A3B69E9B7E72598F
:1057FC005F605C6D698398A89198AE9198644C54E5
:10580C00708A84A295ABB7AE7C535B4C5B694A59EA
:10581C008493A2AF9F9F977664674C627380A59F19
:10582C00A9A7AD756B71544E604C649B8A8CB3AC5C
:10583C00AC9F5C5E7973646D6C97B1A5ADA571710D
:10584C00795A4F514860877D86B8B899926C6186B9
:10585C00765A6D757EA6B3939E7D6F8072575A5A99
:10586C00668F8A85B6B185937B68808268708384E5
:10587C00A0C1968B796D5E816D4E685C7D829F9B1D
:10588C00B08C80856C727B76668381A7C09A746AB3
:10589C006B65766C67757692859199A897917A531A
:1058AC00686D877B808BBFB19183646363675D7721
:1058BC00677A86829E939E9A7F75645C5F80748BF8
:1058CC00B5B49A78786F71675151807D86929392B6
:1058DC00A1AC947F6B5E55686A8792BDC3847B7D57
:1058EC006A6E775B547A79739A957999A88F8774D5
:1058FC005554746E97A5A2A18677767D5A6F6B5B13
:10590C00878C8C9F947496B49789624B6075799F41
:10591C00A895A091727270626B65718091A3987357
:10592C006D8E92927D5255697590A6A28795886F5F
:10593C006E585D607E828E9595A0888A8E86727177
:10594C006564737F8EA8979291826D71624D7379A5
:10595C0092A29387969390897653686A58818F8721
:10596C0093A090988C5C575D60849487889A89AAE0
:10597C00B381797A6369775C84A073869F939D8BDE
:10598C00584A667D99937E7E8E9BAFA3746B6A6931
:10599C0067657189827281979F9178545E728D943C
:1059AC0084807B9CACA791796D7471676E8A7672DA
:1059BC00807BA19D80636D747A93897D7E7F9DAA87
:1059CC0099947167776F6E7866587586949A7A6138
:1059DC006E8D8B888077848997A39D94877E76754E
:1059EC007167685D6084A196916D658E97867F77EF
:1059FC006585959B99968B928C6D7C6A53566165E7
:105A0C00829E7B74687A99A7877B706796A09E8B21
:105A1C008B82A1977A6B5754526F798E8F807876E0
:105A2C0089A7A4867865628CA198898590A29F8E9F
:105A3C00584A3F4D808188726B6E899FA0A2836605
:105A4C00777C88A699858DA19B9E794B453E69896B
:105A5C009684617386A0A19F826F6F7F88859385E2
:105A6C0089A1AE9C8D6048465668838F6B6675869F
:105A7C009EA491836F749297898D7B8DB0AA9F6C35
:105A8C0046515F707279726E80968D9A9878857691
:105A9C0078918A74877A9ABCA48E564A5278706927
:105AAC007262708598858E80798B7E8D957E8C8DBB
